:100000000C949E000C94C6000C94C6000C94C60080
:100010000C94C6000C94C6000C94C6000C94C60048
:100020000C94C6000C94C6000C94C6000C94C60038
:100030000C94C6000C94C6000C94C6000C94C60028
:100040000C94B0010C94C6000C94C3040C94F504F9
:100050000C94C6000C94C6000C94C6000C94C60008
:100060000C94C6000C94C6000C94C6000C94C600F8
:100070000C94C6000C94C6000C94C6000C94C600E8
:100080000C94C6000C94C6000C94C6000C94C600D8
:100090000C94C6000C94C6000C94C6000C94C600C8
:1000A0000C94C6000C94C6000C94C6000C94C600B8
:1000B0000C94C600C402C702BA02BE02E802E802FB
:1000C000CB02CF02D502D902E802DF02E302090C1B
:1000D0000A080002010000030407000000000000FD
:1000E000000000000000010204081020408001020E
:1000F000040810200102040810200408010204046E
:1001000004040404040402020202020203030303BF
:100110000303050505050000000023002600290053
:100120002C0000000000250028002B002E000000FD
:100130000000240027002A002D00250511241FBEE1
:10014000CFEFD8E0DEBFCDBF11E0A0E0B1E0E6E147
:10015000FDE002C005900D92A033B107D9F721E070
:10016000A0E3B1E001C01D92A83DB207E1F710E0A5
:10017000CEE9D0E004C02197FE010E948306CD396C
:10018000D107C9F70E9451060C9489060C9400000F
:10019000CF92DF92EF92FF920F931F93E82FF92FE8
:1001A00005C0015011092109310961F1908196239F
:1001B0009417B9F305C0015011092109310911F152
:1001C000908196239413F7CFC12CD12CE12CF12CE4
:1001D0000AC08FEFC81AD80AE80AF80A0C151D05DC
:1001E0002E053F0579F080818623841791F36C2DCD
:1001F0007D2D8E2D9F2D1F910F91FF90EF90DF9001
:10020000CF90089560E070E080E090E01F910F9142
:10021000FF90EF90DF90CF90089561E088E00E941A
:10022000E90261E089E00E94E90261E08AE00E945F
:10023000E90261E08BE00E94E90260E08CE00E944C
:10024000E90261E088E00E94250360E089E00E9405
:10025000250326E040E855E260E070E08BE391E0A2
:100260000C945E0460E08AE00E94250360E08BE06D
:100270000E94250320E432E44FE050E060E08CE08F
:100280000E945503709331016093300160E071E08A
:100290008BE391E00E9492056091300170913101F1
:1002A0004AE050E08BE391E00E94320666E970E09C
:1002B00080E090E00E941F0261E08AE00E94250336
:1002C00061E08BE00E94250320E432E44FE050E03F
:1002D00060E08CE00E94550370933101609330011F
:1002E00064E071E08BE391E00E949205609130013F
:1002F000709131014AE050E08BE391E00E943206B8
:1003000066E970E080E090E00E941F0260E08AE011
:100310000E94250361E08BE00E94250320E432E483
:100320004FE050E060E08CE00E9455037093310193
:100330006093300169E071E08BE391E00E949205E7
:1003400060913001709131014AE050E08BE391E01F
:100350000E94390666E970E080E090E00C941F028C
:100360001F920F920FB60F9211242F933F938F93EA
:100370009F93AF93BF938091330190913401A091EB
:100380003501B09136013091320123E0230F2D3732
:1003900020F40196A11DB11D05C026E8230F029689
:1003A000A11DB11D2093320180933301909334013C
:1003B000A0933501B09336018091370190913801B7
:1003C000A0913901B0913A010196A11DB11D809310
:1003D000370190933801A0933901B0933A01BF914E
:1003E000AF919F918F913F912F910F900FBE0F90E2
:1003F0001F9018953FB7F89480913701909138017C
:10040000A0913901B0913A0126B5A89B05C02F3FB4
:1004100019F00196A11DB11D3FBFBA2FA92F982F2A
:100420008827820F911DA11DB11DBC01CD0142E0A5
:10043000660F771F881F991F4A95D1F708958F92ED
:100440009F92AF92BF92CF92DF92EF92FF926B0199
:100450007C010E94FA014B015C01C114D104E1044A
:10046000F10401F10E9460060E94FA01DC01CB0157
:1004700088199909AA09BB09883E9340A105B105CD
:1004800060F321E0C21AD108E108F10888EE880E75
:1004900083E0981EA11CB11CC114D104E104F10435
:1004A00019F7DBCFFF90EF90DF90CF90BF90AF9028
:1004B0009F908F900895789484B5826084BD84B5B0
:1004C000816084BD85B5826085BD85B5816085BD4F
:1004D000EEE6F0E0808181608083E1E8F0E0108268
:1004E000808182608083808181608083E0E8F0E0A9
:1004F000808181608083E1EBF0E080818460808393
:10050000E0EBF0E0808181608083E1E9F0E08081D0
:1005100082608083808181608083E0E9F0E0808177
:1005200081608083E1EAF0E0808182608083808165
:1005300081608083E0EAF0E0808181608083EAE787
:10054000F0E080818460808380818260808380810C
:10055000816080838081806880831092C1000895CB
:1005600090E0FC013197ED30F10590F5E65AFF4F30
:100570000C948306809180008F7703C08091800067
:100580008F7D80938000089584B58F7702C084B5F5
:100590008F7D84BD08958091B0008F7703C08091D6
:1005A000B0008F7D8093B0000895809190008F7788
:1005B00003C0809190008F7D80939000089580917A
:1005C000A0008F7703C08091A0008F7D8093A00052
:1005D0000895CF93DF9390E0FC01EA51FF4F2491FF
:1005E000FC01E250FF4F8491882361F190E0880F75
:1005F000991FFC01E25DFE4FC591D491FC01EE5DB7
:10060000FE4FA591B491611109C09FB7F8948881FC
:10061000209582238883EC912E230BC0623061F4F5
:100620009FB7F8943881822F809583238883EC913B
:100630002E2B2C939FBF06C08FB7F894E8812E2BEA
:1006400028838FBFDF91CF9108951F93CF93DF93BE
:10065000282F30E0F901E253FF4F8491F901EA516C
:10066000FF4FD491F901E250FF4FC491CC23C9F060
:10067000162F81110E94B002EC2FF0E0EE0FFF1F49
:10068000EE5DFE4FA591B4918FB7F894111105C09E
:100690009C91ED2FE095E92302C0EC91ED2BEC93BA
:1006A0008FBFDF91CF911F9108950F931F9390E01B
:1006B000FC01EA51FF4F7491FC01E250FF4FE491BD
:1006C000662311F0672F01C060E0F0E0EE0FFF1F1E
:1006D000EA5EFE4F8591949189019A013F70462F01
:1006E000672F0E94C800611571058105910549F0C9
:1006F000DC01CB010196A11DB11DBC01CD019F7094
:1007000003C060E070E0CB011F910F910895FC01E0
:10071000918D228D892F90E0805C9F4F821B9109E3
:100720008F7399270895FC01918D828D981731F070
:10073000828DE80FF11D858D90E008958FEF9FEF7A
:100740000895FC01918D828D981761F0828DDF01F3
:10075000A80FB11D5D968C91928D9F5F9F73928FB4
:1007600090E008958FEF9FEF08958BE195E0892B3E
:1007700041F080E090E0892B21F00E941B0581115F
:100780000DC080E090E0892B71F080E090E0892B33
:1007900051F00E940000811104C008950E940000E1
:1007A000F0CF0C9400000895FC01848DDF01A80FA8
:1007B000B11DA35ABF4F2C91848D90E001968F7389
:1007C0009927848FA689B7892C93A089B1898C91A8
:1007D00080648C93938D848D981306C00288F3896E
:1007E000E02D80818F7D80830895CF93DF93EC018E
:1007F000888D8823C9F0EA89FB89808185FD05C041
:10080000A889B9898C9186FD0FC00FB607FCF5CF7A
:10081000808185FFF2CFA889B9898C9185FFEDCFC2
:10082000CE010E94D403E7CFDF91CF910895EF92DC
:10083000FF920F931F93CF93DF93EC0181E0888F9A
:100840009B8D8C8D981305C0E889F989808185FD81
:1008500024C0F62E0B8D10E00F5F1F4F0F73112772
:10086000E02E8C8DE8120CC00FB607FCFACFE88999
:10087000F989808185FFF5CFCE010E94D403F1CFA5
:100880008B8DFE01E80FF11DE35AFF4FF0820B8FB5
:10089000EA89FB898081806207C0EE89FF896083D5
:1008A000E889F98980818064808381E090E0DF912C
:1008B000CF911F910F91FF90EF900895CF92DF920B
:1008C000EF92FF921F93CF93DF93EC016A017B01BC
:1008D000122FE889F98982E080834115514E610524
:1008E0007105B1F060E079E08DE390E0A701960139
:1008F0000E946106DA01C9010197A109B109B69503
:10090000A79597958795AC01411580E15807A8F008
:10091000E889F989108260E874E88EE190E0A70127
:1009200096010E946106BA01A9014150510961096D
:1009300071097695679557954795EC85FD855083A8
:10094000EE85FF854083188EEC89FD891083EA8946
:10095000FB89808180618083EA89FB89808188604E
:100960008083EA89FB89808180688083EA89FB89AA
:1009700080818F7D8083DF91CF911F91FF90EF90D9
:10098000DF90CF9008951F920F920FB60F9211240F
:100990002F938F939F93EF93FF93E0914B01F091EF
:1009A0004C018081E0915101F091520182FD12C011
:1009B0009081809154018F5F8F7320915501821730
:1009C00051F0E0915401F0E0E55CFE4F958F80938B
:1009D000540101C08081FF91EF919F918F912F91E0
:1009E0000F900FBE0F901F9018951F920F920FB689
:1009F0000F9211242F933F934F935F936F937F93A5
:100A00008F939F93AF93BF93EF93FF938BE391E00B
:100A10000E94D403FF91EF91BF91AF919F918F916D
:100A20007F916F915F914F913F912F910F900FBEEA
:100A30000F901F9018958BE391E00E94870321E0AF
:100A4000892B09F420E0822F0895EBE3F1E0138273
:100A5000128288EE93E0A0E0B0E084839583A683C1
:100A6000B78382E191E09183808385EC90E0958764
:100A7000848784EC90E09787868780EC90E0918B68
:100A8000808B81EC90E0938B828B82EC90E0958B55
:100A9000848B86EC90E0978B868B118E128E138E52
:100AA000148E0895CF92DF92EF92FF920F931F93CF
:100AB000CF93DF936C017A018B01C0E0D0E0CE15BB
:100AC000DF0589F0D8016D918D01D601ED91FC9182
:100AD0000190F081E02DC6010995892B11F47E016A
:100AE00002C02196ECCFC701DF91CF911F910F91EA
:100AF000FF90EF90DF90CF9008956115710579F028
:100B0000FB0101900020E9F73197AF01461B570B1D
:100B1000DC01ED91FC910280F381E02D099480E0ED
:100B200090E008950C947D05DC01ED91FC9101901D
:100B3000F081E02D09946EE171E00C947D054F92F7
:100B40005F926F927F92EF92FF920F931F93CF93DA
:100B5000DF93CDB7DEB7A1970FB6F894DEBF0FBE17
:100B6000CDBF7C01FA01CB0119A2223008F42AE0A2
:100B70008E010F5D1F4F422E512C612C712CBF0135
:100B8000A30192010E946106F901CA0101501109F5
:100B90006A3014F4605D01C0695CD8016C93232B4A
:100BA000242B252B61F7B801C7010E947D05A19672
:100BB0000FB6F894DEBF0FBECDBFDF91CF911F916E
:100BC0000F91FF90EF907F906F905F904F900895FE
:100BD000CF92DF92EF92FF920F931F93CF93DF9309
:100BE000EC016A017B012115310579F4E881F98175
:100BF0000190F081E02D642FDF91CF911F910F9133
:100C0000FF90EF90DF90CF9009942A303105E9F4FE
:100C100077FF1AC06DE20E9494058C014427552786
:100C2000BA014C195D096E097F092AE0CE010E94C4
:100C30009F05800F911FDF91CF911F910F91FF9022
:100C4000EF90DF90CF9008952AE0B701A601CE0182
:100C5000DF91CF911F910F91FF90EF90DF90CF9098
:100C60000C949F059A01AB01770F660B770B0C94E0
:100C7000E8050F931F93CF93DF93EC019A01AB012B
:100C8000770F660B770B0E94E8058C01CE010E945E
:100C90009B05800F911FDF91CF911F910F910895B8
:100CA00008950E945B020E9450060E940D01C5EB50
:100CB000D3E00E9432012097E1F30E94B503F9CFFF
:100CC0000895A1E21A2EAA1BBB1BFD010DC0AA1F8D
:100CD000BB1FEE1FFF1FA217B307E407F50720F0A5
:100CE000A21BB30BE40BF50B661F771F881F991F20
:100CF0001A9469F760957095809590959B01AC0169
:100D0000BD01CF010895EE0FFF1F0590F491E02D76
:060D10000994F894FFCFE6
:100D1600523D200020473D200020423D200000009B
:100D26000000170452058703A1039303F5030D0A78
:100D3600006E616E00696E66006F7666002E0000BA
:00000001FF
